{
  "_format": "hh-sol-artifact-1",
  "contractName": "Turing",
  "sourceName": "contracts/Turing.sol",
  "abi": [
    {
      "inputs": [],
      "stateMutability": "nonpayable",
      "type": "constructor"
    },
    {
      "anonymous": false,
      "inputs": [
        {
          "indexed": true,
          "internalType": "address",
          "name": "owner",
          "type": "address"
        },
        {
          "indexed": true,
          "internalType": "address",
          "name": "spender",
          "type": "address"
        },
        {
          "indexed": false,
          "internalType": "uint256",
          "name": "value",
          "type": "uint256"
        }
      ],
      "name": "Approval",
      "type": "event"
    },
    {
      "anonymous": false,
      "inputs": [
        {
          "indexed": true,
          "internalType": "address",
          "name": "previousOwner",
          "type": "address"
        },
        {
          "indexed": true,
          "internalType": "address",
          "name": "newOwner",
          "type": "address"
        }
      ],
      "name": "OwnershipTransferred",
      "type": "event"
    },
    {
      "anonymous": false,
      "inputs": [
        {
          "indexed": true,
          "internalType": "address",
          "name": "from",
          "type": "address"
        },
        {
          "indexed": true,
          "internalType": "address",
          "name": "to",
          "type": "address"
        },
        {
          "indexed": false,
          "internalType": "uint256",
          "name": "value",
          "type": "uint256"
        }
      ],
      "name": "Transfer",
      "type": "event"
    },
    {
      "inputs": [
        {
          "internalType": "address",
          "name": "owner",
          "type": "address"
        },
        {
          "internalType": "address",
          "name": "spender",
          "type": "address"
        }
      ],
      "name": "allowance",
      "outputs": [
        {
          "internalType": "uint256",
          "name": "",
          "type": "uint256"
        }
      ],
      "stateMutability": "view",
      "type": "function"
    },
    {
      "inputs": [
        {
          "internalType": "address",
          "name": "spender",
          "type": "address"
        },
        {
          "internalType": "uint256",
          "name": "amount",
          "type": "uint256"
        }
      ],
      "name": "approve",
      "outputs": [
        {
          "internalType": "bool",
          "name": "",
          "type": "bool"
        }
      ],
      "stateMutability": "nonpayable",
      "type": "function"
    },
    {
      "inputs": [
        {
          "internalType": "address",
          "name": "account",
          "type": "address"
        }
      ],
      "name": "balanceOf",
      "outputs": [
        {
          "internalType": "uint256",
          "name": "",
          "type": "uint256"
        }
      ],
      "stateMutability": "view",
      "type": "function"
    },
    {
      "inputs": [
        {
          "internalType": "string",
          "name": "",
          "type": "string"
        }
      ],
      "name": "codinomes",
      "outputs": [
        {
          "internalType": "address",
          "name": "",
          "type": "address"
        }
      ],
      "stateMutability": "view",
      "type": "function"
    },
    {
      "inputs": [
        {
          "internalType": "address",
          "name": "",
          "type": "address"
        }
      ],
      "name": "codinomesInverso",
      "outputs": [
        {
          "internalType": "string",
          "name": "",
          "type": "string"
        }
      ],
      "stateMutability": "view",
      "type": "function"
    },
    {
      "inputs": [],
      "name": "decimals",
      "outputs": [
        {
          "internalType": "uint8",
          "name": "",
          "type": "uint8"
        }
      ],
      "stateMutability": "view",
      "type": "function"
    },
    {
      "inputs": [
        {
          "internalType": "address",
          "name": "spender",
          "type": "address"
        },
        {
          "internalType": "uint256",
          "name": "subtractedValue",
          "type": "uint256"
        }
      ],
      "name": "decreaseAllowance",
      "outputs": [
        {
          "internalType": "bool",
          "name": "",
          "type": "bool"
        }
      ],
      "stateMutability": "nonpayable",
      "type": "function"
    },
    {
      "inputs": [],
      "name": "getCodinomes",
      "outputs": [
        {
          "internalType": "string[]",
          "name": "",
          "type": "string[]"
        }
      ],
      "stateMutability": "pure",
      "type": "function"
    },
    {
      "inputs": [
        {
          "internalType": "address",
          "name": "",
          "type": "address"
        },
        {
          "internalType": "string",
          "name": "",
          "type": "string"
        }
      ],
      "name": "hasVoted",
      "outputs": [
        {
          "internalType": "bool",
          "name": "",
          "type": "bool"
        }
      ],
      "stateMutability": "view",
      "type": "function"
    },
    {
      "inputs": [
        {
          "internalType": "address",
          "name": "spender",
          "type": "address"
        },
        {
          "internalType": "uint256",
          "name": "addedValue",
          "type": "uint256"
        }
      ],
      "name": "increaseAllowance",
      "outputs": [
        {
          "internalType": "bool",
          "name": "",
          "type": "bool"
        }
      ],
      "stateMutability": "nonpayable",
      "type": "function"
    },
    {
      "inputs": [
        {
          "internalType": "string",
          "name": "codinome",
          "type": "string"
        },
        {
          "internalType": "uint256",
          "name": "quantidade",
          "type": "uint256"
        }
      ],
      "name": "issueToken",
      "outputs": [],
      "stateMutability": "nonpayable",
      "type": "function"
    },
    {
      "inputs": [],
      "name": "name",
      "outputs": [
        {
          "internalType": "string",
          "name": "",
          "type": "string"
        }
      ],
      "stateMutability": "view",
      "type": "function"
    },
    {
      "inputs": [],
      "name": "owner",
      "outputs": [
        {
          "internalType": "address",
          "name": "",
          "type": "address"
        }
      ],
      "stateMutability": "view",
      "type": "function"
    },
    {
      "inputs": [],
      "name": "professora",
      "outputs": [
        {
          "internalType": "address",
          "name": "",
          "type": "address"
        }
      ],
      "stateMutability": "view",
      "type": "function"
    },
    {
      "inputs": [],
      "name": "renounceOwnership",
      "outputs": [],
      "stateMutability": "nonpayable",
      "type": "function"
    },
    {
      "inputs": [],
      "name": "symbol",
      "outputs": [
        {
          "internalType": "string",
          "name": "",
          "type": "string"
        }
      ],
      "stateMutability": "view",
      "type": "function"
    },
    {
      "inputs": [],
      "name": "totalSupply",
      "outputs": [
        {
          "internalType": "uint256",
          "name": "",
          "type": "uint256"
        }
      ],
      "stateMutability": "view",
      "type": "function"
    },
    {
      "inputs": [
        {
          "internalType": "address",
          "name": "recipient",
          "type": "address"
        },
        {
          "internalType": "uint256",
          "name": "amount",
          "type": "uint256"
        }
      ],
      "name": "transfer",
      "outputs": [
        {
          "internalType": "bool",
          "name": "",
          "type": "bool"
        }
      ],
      "stateMutability": "nonpayable",
      "type": "function"
    },
    {
      "inputs": [
        {
          "internalType": "address",
          "name": "sender",
          "type": "address"
        },
        {
          "internalType": "address",
          "name": "recipient",
          "type": "address"
        },
        {
          "internalType": "uint256",
          "name": "amount",
          "type": "uint256"
        }
      ],
      "name": "transferFrom",
      "outputs": [
        {
          "internalType": "bool",
          "name": "",
          "type": "bool"
        }
      ],
      "stateMutability": "nonpayable",
      "type": "function"
    },
    {
      "inputs": [
        {
          "internalType": "address",
          "name": "newOwner",
          "type": "address"
        }
      ],
      "name": "transferOwnership",
      "outputs": [],
      "stateMutability": "nonpayable",
      "type": "function"
    },
    {
      "inputs": [
        {
          "internalType": "string",
          "name": "codinome",
          "type": "string"
        },
        {
          "internalType": "uint256",
          "name": "quantidade",
          "type": "uint256"
        }
      ],
      "name": "vote",
      "outputs": [],
      "stateMutability": "nonpayable",
      "type": "function"
    },
    {
      "inputs": [],
      "name": "votingEnabled",
      "outputs": [
        {
          "internalType": "bool",
          "name": "",
          "type": "bool"
        }
      ],
      "stateMutability": "view",
      "type": "function"
    },
    {
      "inputs": [],
      "name": "votingOff",
      "outputs": [],
      "stateMutability": "nonpayable",
      "type": "function"
    },
    {
      "inputs": [],
      "name": "votingOn",
      "outputs": [],
      "stateMutability": "nonpayable",
      "type": "function"
    }
  ],
  "bytecode": "0x608060405273502542668af09fa7aea52174b9965a7799343df7600960006101000a81548173ffffffffffffffffffffffffffffffffffffffff021916908373ffffffffffffffffffffffffffffffffffffffff1602179055506001600960146101000a81548160ff0219169083151502179055503480156200008157600080fd5b506040518060400160405280600681526020017f547572696e6700000000000000000000000000000000000000000000000000008152506040518060400160405280600381526020017f545552000000000000000000000000000000000000000000000000000000000081525081600390805190602001906200010692919062001661565b5080600490805190602001906200011f92919062001661565b50505062000142620001366200159360201b60201c565b6200159b60201b60201c565b7370997970c51812dc3a010c7d01b50e0d17dc79c860066040516200016790620019f6565b908152602001604051809103902060006101000a81548173ffffffffffffffffffffffffffffffffffffffff021916908373ffffffffffffffffffffffffffffffffffffffff160217905550733c44cdddb6a900fa2b585dd299e03d12fa4293bc6006604051620001d89062001b66565b908152602001604051809103902060006101000a81548173ffffffffffffffffffffffffffffffffffffffff021916908373ffffffffffffffffffffffffffffffffffffffff1602179055507390f79bf6eb2c4f870365e785982e1f101e93b9066006604051620002499062001ac5565b908152602001604051809103902060006101000a81548173ffffffffffffffffffffffffffffffffffffffff021916908373ffffffffffffffffffffffffffffffffffffffff1602179055507315d34aaf54267db7d7c367839aaf71a00a2c6a656006604051620002ba9062001b94565b908152602001604051809103902060006101000a81548173ffffffffffffffffffffffffffffffffffffffff021916908373ffffffffffffffffffffffffffffffffffffffff160217905550739965507d1a55bcc2695c58ba16fb37d819b0a4dc60066040516200032b9062001a69565b908152602001604051809103902060006101000a81548173ffffffffffffffffffffffffffffffffffffffff021916908373ffffffffffffffffffffffffffffffffffffffff16021790555073976ea74026e726554db657fa54763abd0c3a0aa960066040516200039c9062001b0a565b908152602001604051809103902060006101000a81548173ffffffffffffffffffffffffffffffffffffffff021916908373ffffffffffffffffffffffffffffffffffffffff1602179055507314dc79964da2c08b23698b3d3cc7ca32193d995560066040516200040d9062001b7d565b908152602001604051809103902060006101000a81548173ffffffffffffffffffffffffffffffffffffffff021916908373ffffffffffffffffffffffffffffffffffffffff1602179055507323618e81e3f5cdf7f54c3d65f7fbc0abf5b21e8f60066040516200047e9062001af3565b908152602001604051809103902060006101000a81548173ffffffffffffffffffffffffffffffffffffffff021916908373ffffffffffffffffffffffffffffffffffffffff16021790555073a0ee7a142d267c1f36714e4a8f75612f20a797206006604051620004ef9062001a97565b908152602001604051809103902060006101000a81548173ffffffffffffffffffffffffffffffffffffffff021916908373ffffffffffffffffffffffffffffffffffffffff16021790555073bcd4042de499d14e55001ccbb24a551f3b9540966006604051620005609062001adc565b908152602001604051809103902060006101000a81548173ffffffffffffffffffffffffffffffffffffffff021916908373ffffffffffffffffffffffffffffffffffffffff1602179055507371be63f3384f5fb98995898a86b02fb2426c57886006604051620005d19062001a24565b908152602001604051809103902060006101000a81548173ffffffffffffffffffffffffffffffffffffffff021916908373ffffffffffffffffffffffffffffffffffffffff16021790555073fabb0ac9d68b0b445fb7357272ff202c5651694a6006604051620006429062001a80565b908152602001604051809103902060006101000a81548173ffffffffffffffffffffffffffffffffffffffff021916908373ffffffffffffffffffffffffffffffffffffffff160217905550731cbd3b2770909d4e10f157cabc84c7264073c9ec6006604051620006b39062001a0d565b908152602001604051809103902060006101000a81548173ffffffffffffffffffffffffffffffffffffffff021916908373ffffffffffffffffffffffffffffffffffffffff16021790555073df3e18d64bc6a983f673ab319ccae4f1a57c70976006604051620007249062001aae565b908152602001604051809103902060006101000a81548173ffffffffffffffffffffffffffffffffffffffff021916908373ffffffffffffffffffffffffffffffffffffffff16021790555073cd3b766ccdd6ae721141f452c550ca635964ce716006604051620007959062001a3b565b908152602001604051809103902060006101000a81548173ffffffffffffffffffffffffffffffffffffffff021916908373ffffffffffffffffffffffffffffffffffffffff160217905550732546bcd3c84621e976d8185a91a922ae77ecec306006604051620008069062001b4f565b908152602001604051809103902060006101000a81548173ffffffffffffffffffffffffffffffffffffffff021916908373ffffffffffffffffffffffffffffffffffffffff16021790555073bda5747bfd65f08deb54cb465eb87d40e51b197e6006604051620008779062001a52565b908152602001604051809103902060006101000a81548173ffffffffffffffffffffffffffffffffffffffff021916908373ffffffffffffffffffffffffffffffffffffffff16021790555073dd2fd4581271e230360230f9337d5c0430bf44c06006604051620008e89062001b38565b908152602001604051809103902060006101000a81548173ffffffffffffffffffffffffffffffffffffffff021916908373ffffffffffffffffffffffffffffffffffffffff160217905550738626f6940e2eb28930efb4cef49b2d1f2c9c11996006604051620009599062001b21565b908152602001604051809103902060006101000a81548173ffffffffffffffffffffffffffffffffffffffff021916908373ffffffffffffffffffffffffffffffffffffffff1602179055506040518060400160405280600581526020017f6e6f6d6531000000000000000000000000000000000000000000000000000000815250600760007370997970c51812dc3a010c7d01b50e0d17dc79c873ffffffffffffffffffffffffffffffffffffffff1673ffffffffffffffffffffffffffffffffffffffff168152602001908152602001600020908051906020019062000a4392919062001661565b506040518060400160405280600581526020017f6e6f6d653200000000000000000000000000000000000000000000000000000081525060076000733c44cdddb6a900fa2b585dd299e03d12fa4293bc73ffffffffffffffffffffffffffffffffffffffff1673ffffffffffffffffffffffffffffffffffffffff168152602001908152602001600020908051906020019062000ae292919062001661565b506040518060400160405280600581526020017f6e6f6d6533000000000000000000000000000000000000000000000000000000815250600760007390f79bf6eb2c4f870365e785982e1f101e93b90673ffffffffffffffffffffffffffffffffffffffff1673ffffffffffffffffffffffffffffffffffffffff168152602001908152602001600020908051906020019062000b8192919062001661565b506040518060400160405280600581526020017f6e6f6d6534000000000000000000000000000000000000000000000000000000815250600760007315d34aaf54267db7d7c367839aaf71a00a2c6a6573ffffffffffffffffffffffffffffffffffffffff1673ffffffffffffffffffffffffffffffffffffffff168152602001908152602001600020908051906020019062000c2092919062001661565b506040518060400160405280600581526020017f6e6f6d653500000000000000000000000000000000000000000000000000000081525060076000739965507d1a55bcc2695c58ba16fb37d819b0a4dc73ffffffffffffffffffffffffffffffffffffffff1673ffffffffffffffffffffffffffffffffffffffff168152602001908152602001600020908051906020019062000cbf92919062001661565b506040518060400160405280600581526020017f6e6f6d65360000000000000000000000000000000000000000000000000000008152506007600073976ea74026e726554db657fa54763abd0c3a0aa973ffffffffffffffffffffffffffffffffffffffff1673ffffffffffffffffffffffffffffffffffffffff168152602001908152602001600020908051906020019062000d5e92919062001661565b506040518060400160405280600581526020017f6e6f6d6537000000000000000000000000000000000000000000000000000000815250600760007314dc79964da2c08b23698b3d3cc7ca32193d995573ffffffffffffffffffffffffffffffffffffffff1673ffffffffffffffffffffffffffffffffffffffff168152602001908152602001600020908051906020019062000dfd92919062001661565b506040518060400160405280600581526020017f6e6f6d6538000000000000000000000000000000000000000000000000000000815250600760007323618e81e3f5cdf7f54c3d65f7fbc0abf5b21e8f73ffffffffffffffffffffffffffffffffffffffff1673ffffffffffffffffffffffffffffffffffffffff168152602001908152602001600020908051906020019062000e9c92919062001661565b506040518060400160405280600581526020017f6e6f6d65390000000000000000000000000000000000000000000000000000008152506007600073a0ee7a142d267c1f36714e4a8f75612f20a7972073ffffffffffffffffffffffffffffffffffffffff1673ffffffffffffffffffffffffffffffffffffffff168152602001908152602001600020908051906020019062000f3b92919062001661565b506040518060400160405280600681526020017f6e6f6d65313000000000000000000000000000000000000000000000000000008152506007600073bcd4042de499d14e55001ccbb24a551f3b95409673ffffffffffffffffffffffffffffffffffffffff1673ffffffffffffffffffffffffffffffffffffffff168152602001908152602001600020908051906020019062000fda92919062001661565b506040518060400160405280600681526020017f6e6f6d6531310000000000000000000000000000000000000000000000000000815250600760007371be63f3384f5fb98995898a86b02fb2426c578873ffffffffffffffffffffffffffffffffffffffff1673ffffffffffffffffffffffffffffffffffffffff16815260200190815260200160002090805190602001906200107992919062001661565b506040518060400160405280600681526020017f6e6f6d65313200000000000000000000000000000000000000000000000000008152506007600073fabb0ac9d68b0b445fb7357272ff202c5651694a73ffffffffffffffffffffffffffffffffffffffff1673ffffffffffffffffffffffffffffffffffffffff16815260200190815260200160002090805190602001906200111892919062001661565b506040518060400160405280600681526020017f6e6f6d653133000000000000000000000000000000000000000000000000000081525060076000731cbd3b2770909d4e10f157cabc84c7264073c9ec73ffffffffffffffffffffffffffffffffffffffff1673ffffffffffffffffffffffffffffffffffffffff1681526020019081526020016000209080519060200190620011b792919062001661565b506040518060400160405280600681526020017f6e6f6d65313400000000000000000000000000000000000000000000000000008152506007600073df3e18d64bc6a983f673ab319ccae4f1a57c709773ffffffffffffffffffffffffffffffffffffffff1673ffffffffffffffffffffffffffffffffffffffff16815260200190815260200160002090805190602001906200125692919062001661565b506040518060400160405280600681526020017f6e6f6d65313500000000000000000000000000000000000000000000000000008152506007600073cd3b766ccdd6ae721141f452c550ca635964ce7173ffffffffffffffffffffffffffffffffffffffff1673ffffffffffffffffffffffffffffffffffffffff1681526020019081526020016000209080519060200190620012f592919062001661565b506040518060400160405280600681526020017f6e6f6d653136000000000000000000000000000000000000000000000000000081525060076000732546bcd3c84621e976d8185a91a922ae77ecec3073ffffffffffffffffffffffffffffffffffffffff1673ffffffffffffffffffffffffffffffffffffffff16815260200190815260200160002090805190602001906200139492919062001661565b506040518060400160405280600681526020017f6e6f6d65313700000000000000000000000000000000000000000000000000008152506007600073bda5747bfd65f08deb54cb465eb87d40e51b197e73ffffffffffffffffffffffffffffffffffffffff1673ffffffffffffffffffffffffffffffffffffffff16815260200190815260200160002090805190602001906200143392919062001661565b506040518060400160405280600681526020017f6e6f6d65313800000000000000000000000000000000000000000000000000008152506007600073dd2fd4581271e230360230f9337d5c0430bf44c073ffffffffffffffffffffffffffffffffffffffff1673ffffffffffffffffffffffffffffffffffffffff1681526020019081526020016000209080519060200190620014d292919062001661565b506040518060400160405280600681526020017f6e6f6d653139000000000000000000000000000000000000000000000000000081525060076000738626f6940e2eb28930efb4cef49b2d1f2c9c119973ffffffffffffffffffffffffffffffffffffffff1673ffffffffffffffffffffffffffffffffffffffff16815260200190815260200160002090805190602001906200157192919062001661565b506001600960146101000a81548160ff02191690831515021790555062001f26565b600033905090565b6000600560009054906101000a900473ffffffffffffffffffffffffffffffffffffffff16905081600560006101000a81548173ffffffffffffffffffffffffffffffffffffffff021916908373ffffffffffffffffffffffffffffffffffffffff1602179055508173ffffffffffffffffffffffffffffffffffffffff168173ffffffffffffffffffffffffffffffffffffffff167f8be0079c531659141344cd1fd0a4f28419497f9722a3daafe3b4186f6b6457e060405160405180910390a35050565b8280546200166f9062001bb6565b90600052602060002090601f016020900481019282620016935760008555620016df565b82601f10620016ae57805160ff1916838001178555620016df565b82800160010185558215620016df579182015b82811115620016de578251825591602001919060010190620016c1565b5b509050620016ee9190620016f2565b5090565b5b808211156200170d576000816000905550600101620016f3565b5090565b60006200172060058362001bab565b91506200172d8262001c1b565b600582019050919050565b60006200174760068362001bab565b9150620017548262001c44565b600682019050919050565b60006200176e60068362001bab565b91506200177b8262001c6d565b600682019050919050565b60006200179560068362001bab565b9150620017a28262001c96565b600682019050919050565b6000620017bc60068362001bab565b9150620017c98262001cbf565b600682019050919050565b6000620017e360058362001bab565b9150620017f08262001ce8565b600582019050919050565b60006200180a60068362001bab565b9150620018178262001d11565b600682019050919050565b60006200183160058362001bab565b91506200183e8262001d3a565b600582019050919050565b60006200185860068362001bab565b9150620018658262001d63565b600682019050919050565b60006200187f60058362001bab565b91506200188c8262001d8c565b600582019050919050565b6000620018a660068362001bab565b9150620018b38262001db5565b600682019050919050565b6000620018cd60058362001bab565b9150620018da8262001dde565b600582019050919050565b6000620018f460058362001bab565b9150620019018262001e07565b600582019050919050565b60006200191b60068362001bab565b9150620019288262001e30565b600682019050919050565b60006200194260068362001bab565b91506200194f8262001e59565b600682019050919050565b60006200196960068362001bab565b9150620019768262001e82565b600682019050919050565b60006200199060058362001bab565b91506200199d8262001eab565b600582019050919050565b6000620019b760058362001bab565b9150620019c48262001ed4565b600582019050919050565b6000620019de60058362001bab565b9150620019eb8262001efd565b600582019050919050565b600062001a038262001711565b9150819050919050565b600062001a1a8262001738565b9150819050919050565b600062001a31826200175f565b9150819050919050565b600062001a488262001786565b9150819050919050565b600062001a5f82620017ad565b9150819050919050565b600062001a7682620017d4565b9150819050919050565b600062001a8d82620017fb565b9150819050919050565b600062001aa48262001822565b9150819050919050565b600062001abb8262001849565b9150819050919050565b600062001ad28262001870565b9150819050919050565b600062001ae98262001897565b9150819050919050565b600062001b0082620018be565b9150819050919050565b600062001b1782620018e5565b9150819050919050565b600062001b2e826200190c565b9150819050919050565b600062001b458262001933565b9150819050919050565b600062001b5c826200195a565b9150819050919050565b600062001b738262001981565b9150819050919050565b600062001b8a82620019a8565b9150819050919050565b600062001ba182620019cf565b9150819050919050565b600081905092915050565b6000600282049050600182168062001bcf57607f821691505b6020821081141562001be65762001be562001bec565b5b50919050565b7f4e487b7100000000000000000000000000000000000000000000000000000000600052602260045260246000fd5b7f6e6f6d6531000000000000000000000000000000000000000000000000000000600082015250565b7f6e6f6d6531330000000000000000000000000000000000000000000000000000600082015250565b7f6e6f6d6531310000000000000000000000000000000000000000000000000000600082015250565b7f6e6f6d6531350000000000000000000000000000000000000000000000000000600082015250565b7f6e6f6d6531370000000000000000000000000000000000000000000000000000600082015250565b7f6e6f6d6535000000000000000000000000000000000000000000000000000000600082015250565b7f6e6f6d6531320000000000000000000000000000000000000000000000000000600082015250565b7f6e6f6d6539000000000000000000000000000000000000000000000000000000600082015250565b7f6e6f6d6531340000000000000000000000000000000000000000000000000000600082015250565b7f6e6f6d6533000000000000000000000000000000000000000000000000000000600082015250565b7f6e6f6d6531300000000000000000000000000000000000000000000000000000600082015250565b7f6e6f6d6538000000000000000000000000000000000000000000000000000000600082015250565b7f6e6f6d6536000000000000000000000000000000000000000000000000000000600082015250565b7f6e6f6d6531390000000000000000000000000000000000000000000000000000600082015250565b7f6e6f6d6531380000000000000000000000000000000000000000000000000000600082015250565b7f6e6f6d6531360000000000000000000000000000000000000000000000000000600082015250565b7f6e6f6d6532000000000000000000000000000000000000000000000000000000600082015250565b7f6e6f6d6537000000000000000000000000000000000000000000000000000000600082015250565b7f6e6f6d6534000000000000000000000000000000000000000000000000000000600082015250565b6133ac8062001f366000396000f3fe608060405234801561001057600080fd5b50600436106101585760003560e01c806370a08231116100c3578063a9059cbb1161007c578063a9059cbb146103a7578063c683e0f4146103d7578063c6847060146103f3578063cf424a5414610423578063dd62ed3e14610453578063f2fde38b1461048357610158565b806370a08231146102e5578063715018a6146103155780638da5cb5b1461031f57806395d89b411461033d578063a457c2d71461035b578063a63858031461038b57610158565b8063313ce56711610115578063313ce56714610221578063395093511461023f57806360a3ae061461026f578063640e11681461027957806365cf83e1146102975780636c66247a146102c757610158565b806306fdde031461015d578063095ea7b31461017b5780630d5471f0146101ab57806318160ddd146101c957806320949bb4146101e757806323b872dd146101f1575b600080fd5b61016561049f565b6040516101729190612a2f565b60405180910390f35b61019560048036038101906101909190612557565b610531565b6040516101a29190612a14565b60405180910390f35b6101b361054f565b6040516101c091906129f2565b60405180910390f35b6101d1610ef2565b6040516101de9190612c51565b60405180910390f35b6101ef610efc565b005b61020b600480360381019061020691906124b4565b610fe6565b6040516102189190612a14565b60405180910390f35b6102296110de565b6040516102369190612c6c565b60405180910390f35b61025960048036038101906102549190612557565b6110e7565b6040516102669190612a14565b60405180910390f35b610277611193565b005b61028161127d565b60405161028e9190612a14565b60405180910390f35b6102b160048036038101906102ac9190612593565b611290565b6040516102be91906129d7565b60405180910390f35b6102cf6112d9565b6040516102dc91906129d7565b60405180910390f35b6102ff60048036038101906102fa919061244f565b6112ff565b60405161030c9190612c51565b60405180910390f35b61031d611347565b005b6103276113cf565b60405161033491906129d7565b60405180910390f35b6103456113f9565b6040516103529190612a2f565b60405180910390f35b61037560048036038101906103709190612557565b61148b565b6040516103829190612a14565b60405180910390f35b6103a560048036038101906103a091906125d4565b611576565b005b6103c160048036038101906103bc9190612557565b6118e8565b6040516103ce9190612a14565b60405180910390f35b6103f160048036038101906103ec91906125d4565b611906565b005b61040d60048036038101906104089190612503565b611ad5565b60405161041a9190612a14565b60405180910390f35b61043d6004803603810190610438919061244f565b611b1a565b60405161044a9190612a2f565b60405180910390f35b61046d60048036038101906104689190612478565b611bba565b60405161047a9190612c51565b60405180910390f35b61049d6004803603810190610498919061244f565b611c41565b005b6060600380546104ae90612e3b565b80601f01602080910402602001604051908101604052809291908181526020018280546104da90612e3b565b80156105275780601f106104fc57610100808354040283529160200191610527565b820191906000526020600020905b81548152906001019060200180831161050a57829003601f168201915b5050505050905090565b600061054561053e611d39565b8484611d41565b6001905092915050565b60606000601367ffffffffffffffff811115610594577f4e487b7100000000000000000000000000000000000000000000000000000000600052604160045260246000fd5b6040519080825280602002602001820160405280156105c757816020015b60608152602001906001900390816105b25790505b5090506040518060400160405280600581526020017f6e6f6d65310000000000000000000000000000000000000000000000000000008152508160008151811061063a577f4e487b7100000000000000000000000000000000000000000000000000000000600052603260045260246000fd5b60200260200101819052506040518060400160405280600581526020017f6e6f6d6532000000000000000000000000000000000000000000000000000000815250816001815181106106b5577f4e487b7100000000000000000000000000000000000000000000000000000000600052603260045260246000fd5b60200260200101819052506040518060400160405280600581526020017f6e6f6d653300000000000000000000000000000000000000000000000000000081525081600281518110610730577f4e487b7100000000000000000000000000000000000000000000000000000000600052603260045260246000fd5b60200260200101819052506040518060400160405280600581526020017f6e6f6d6534000000000000000000000000000000000000000000000000000000815250816003815181106107ab577f4e487b7100000000000000000000000000000000000000000000000000000000600052603260045260246000fd5b60200260200101819052506040518060400160405280600581526020017f6e6f6d653500000000000000000000000000000000000000000000000000000081525081600481518110610826577f4e487b7100000000000000000000000000000000000000000000000000000000600052603260045260246000fd5b60200260200101819052506040518060400160405280600581526020017f6e6f6d6536000000000000000000000000000000000000000000000000000000815250816005815181106108a1577f4e487b7100000000000000000000000000000000000000000000000000000000600052603260045260246000fd5b60200260200101819052506040518060400160405280600581526020017f6e6f6d65370000000000000000000000000000000000000000000000000000008152508160068151811061091c577f4e487b7100000000000000000000000000000000000000000000000000000000600052603260045260246000fd5b60200260200101819052506040518060400160405280600581526020017f6e6f6d653800000000000000000000000000000000000000000000000000000081525081600781518110610997577f4e487b7100000000000000000000000000000000000000000000000000000000600052603260045260246000fd5b60200260200101819052506040518060400160405280600581526020017f6e6f6d653900000000000000000000000000000000000000000000000000000081525081600881518110610a12577f4e487b7100000000000000000000000000000000000000000000000000000000600052603260045260246000fd5b60200260200101819052506040518060400160405280600681526020017f6e6f6d653130000000000000000000000000000000000000000000000000000081525081600981518110610a8d577f4e487b7100000000000000000000000000000000000000000000000000000000600052603260045260246000fd5b60200260200101819052506040518060400160405280600681526020017f6e6f6d653131000000000000000000000000000000000000000000000000000081525081600a81518110610b08577f4e487b7100000000000000000000000000000000000000000000000000000000600052603260045260246000fd5b60200260200101819052506040518060400160405280600681526020017f6e6f6d653132000000000000000000000000000000000000000000000000000081525081600b81518110610b83577f4e487b7100000000000000000000000000000000000000000000000000000000600052603260045260246000fd5b60200260200101819052506040518060400160405280600681526020017f6e6f6d653133000000000000000000000000000000000000000000000000000081525081600c81518110610bfe577f4e487b7100000000000000000000000000000000000000000000000000000000600052603260045260246000fd5b60200260200101819052506040518060400160405280600681526020017f6e6f6d653134000000000000000000000000000000000000000000000000000081525081600d81518110610c79577f4e487b7100000000000000000000000000000000000000000000000000000000600052603260045260246000fd5b60200260200101819052506040518060400160405280600681526020017f6e6f6d653135000000000000000000000000000000000000000000000000000081525081600e81518110610cf4577f4e487b7100000000000000000000000000000000000000000000000000000000600052603260045260246000fd5b60200260200101819052506040518060400160405280600681526020017f6e6f6d653136000000000000000000000000000000000000000000000000000081525081600f81518110610d6f577f4e487b7100000000000000000000000000000000000000000000000000000000600052603260045260246000fd5b60200260200101819052506040518060400160405280600681526020017f6e6f6d653137000000000000000000000000000000000000000000000000000081525081601081518110610dea577f4e487b7100000000000000000000000000000000000000000000000000000000600052603260045260246000fd5b60200260200101819052506040518060400160405280600681526020017f6e6f6d653138000000000000000000000000000000000000000000000000000081525081601181518110610e65577f4e487b7100000000000000000000000000000000000000000000000000000000600052603260045260246000fd5b60200260200101819052506040518060400160405280600681526020017f6e6f6d653139000000000000000000000000000000000000000000000000000081525081601281518110610ee0577f4e487b7100000000000000000000000000000000000000000000000000000000600052603260045260246000fd5b60200260200101819052508091505090565b6000600254905090565b610f046113cf565b73ffffffffffffffffffffffffffffffffffffffff163373ffffffffffffffffffffffffffffffffffffffff161480610f8a5750600960009054906101000a900473ffffffffffffffffffffffffffffffffffffffff1673ffffffffffffffffffffffffffffffffffffffff163373ffffffffffffffffffffffffffffffffffffffff16145b610fc9576040517f08c379a0000000000000000000000000000000000000000000000000000000008152600401610fc090612b71565b60405180910390fd5b6001600960146101000a81548160ff021916908315150217905550565b6000610ff3848484611f0c565b6000600160008673ffffffffffffffffffffffffffffffffffffffff1673ffffffffffffffffffffffffffffffffffffffff168152602001908152602001600020600061103e611d39565b73ffffffffffffffffffffffffffffffffffffffff1673ffffffffffffffffffffffffffffffffffffffff168152602001908152602001600020549050828110156110be576040517f08c379a00000000000000000000000000000000000000000000000000000000081526004016110b590612b11565b60405180910390fd5b6110d2856110ca611d39565b858403611d41565b60019150509392505050565b60006012905090565b60006111896110f4611d39565b848460016000611102611d39565b73ffffffffffffffffffffffffffffffffffffffff1673ffffffffffffffffffffffffffffffffffffffff16815260200190815260200160002060008873ffffffffffffffffffffffffffffffffffffffff1673ffffffffffffffffffffffffffffffffffffffff168152602001908152602001600020546111849190612d4e565b611d41565b6001905092915050565b61119b6113cf565b73ffffffffffffffffffffffffffffffffffffffff163373ffffffffffffffffffffffffffffffffffffffff1614806112215750600960009054906101000a900473ffffffffffffffffffffffffffffffffffffffff1673ffffffffffffffffffffffffffffffffffffffff163373ffffffffffffffffffffffffffffffffffffffff16145b611260576040517f08c379a000000000000000000000000000000000000000000000000000000000815260040161125790612b71565b60405180910390fd5b6000600960146101000a81548160ff021916908315150217905550565b600960149054906101000a900460ff1681565b6006818051602081018201805184825260208301602085012081835280955050505050506000915054906101000a900473ffffffffffffffffffffffffffffffffffffffff1681565b600960009054906101000a900473ffffffffffffffffffffffffffffffffffffffff1681565b60008060008373ffffffffffffffffffffffffffffffffffffffff1673ffffffffffffffffffffffffffffffffffffffff168152602001908152602001600020549050919050565b61134f611d39565b73ffffffffffffffffffffffffffffffffffffffff1661136d6113cf565b73ffffffffffffffffffffffffffffffffffffffff16146113c3576040517f08c379a00000000000000000000000000000000000000000000000000000000081526004016113ba90612b31565b60405180910390fd5b6113cd600061218d565b565b6000600560009054906101000a900473ffffffffffffffffffffffffffffffffffffffff16905090565b60606004805461140890612e3b565b80601f016020809104026020016040519081016040528092919081815260200182805461143490612e3b565b80156114815780601f1061145657610100808354040283529160200191611481565b820191906000526020600020905b81548152906001019060200180831161146457829003601f168201915b5050505050905090565b6000806001600061149a611d39565b73ffffffffffffffffffffffffffffffffffffffff1673ffffffffffffffffffffffffffffffffffffffff16815260200190815260200160002060008573ffffffffffffffffffffffffffffffffffffffff1673ffffffffffffffffffffffffffffffffffffffff16815260200190815260200160002054905082811015611557576040517f08c379a000000000000000000000000000000000000000000000000000000000815260040161154e90612c11565b60405180910390fd5b61156b611562611d39565b85858403611d41565b600191505092915050565b600960149054906101000a900460ff166115c5576040517f08c379a00000000000000000000000000000000000000000000000000000000081526004016115bc90612bd1565b60405180910390fd5b81600073ffffffffffffffffffffffffffffffffffffffff166006826040516115ee91906129c0565b908152602001604051809103902060009054906101000a900473ffffffffffffffffffffffffffffffffffffffff1673ffffffffffffffffffffffffffffffffffffffff161415611674576040517f08c379a000000000000000000000000000000000000000000000000000000000815260040161166b90612ad1565b60405180910390fd5b671bc16d674ec800008211156116bf576040517f08c379a00000000000000000000000000000000000000000000000000000000081526004016116b690612af1565b60405180910390fd5b600860003373ffffffffffffffffffffffffffffffffffffffff1673ffffffffffffffffffffffffffffffffffffffff1681526020019081526020016000208360405161170c91906129c0565b908152602001604051809103902060009054906101000a900460ff1615611768576040517f08c379a000000000000000000000000000000000000000000000000000000000815260040161175f90612bf1565b60405180910390fd5b3373ffffffffffffffffffffffffffffffffffffffff1660068460405161178f91906129c0565b908152602001604051809103902060009054906101000a900473ffffffffffffffffffffffffffffffffffffffff1673ffffffffffffffffffffffffffffffffffffffff161415611815576040517f08c379a000000000000000000000000000000000000000000000000000000000815260040161180c90612b51565b60405180910390fd5b61185d60068460405161182891906129c0565b908152602001604051809103902060009054906101000a900473ffffffffffffffffffffffffffffffffffffffff1683612253565b61186f336702c68af0bb140000612253565b6001600860003373ffffffffffffffffffffffffffffffffffffffff1673ffffffffffffffffffffffffffffffffffffffff168152602001908152602001600020846040516118be91906129c0565b908152602001604051809103902060006101000a81548160ff021916908315150217905550505050565b60006118fc6118f5611d39565b8484611f0c565b6001905092915050565b61190e6113cf565b73ffffffffffffffffffffffffffffffffffffffff163373ffffffffffffffffffffffffffffffffffffffff1614806119945750600960009054906101000a900473ffffffffffffffffffffffffffffffffffffffff1673ffffffffffffffffffffffffffffffffffffffff163373ffffffffffffffffffffffffffffffffffffffff16145b6119d3576040517f08c379a00000000000000000000000000000000000000000000000000000000081526004016119ca90612b71565b60405180910390fd5b81600073ffffffffffffffffffffffffffffffffffffffff166006826040516119fc91906129c0565b908152602001604051809103902060009054906101000a900473ffffffffffffffffffffffffffffffffffffffff1673ffffffffffffffffffffffffffffffffffffffff161415611a82576040517f08c379a0000000000000000000000000000000000000000000000000000000008152600401611a7990612ad1565b60405180910390fd5b6000600684604051611a9491906129c0565b908152602001604051809103902060009054906101000a900473ffffffffffffffffffffffffffffffffffffffff169050611acf8184612253565b50505050565b6008602052816000526040600020818051602081018201805184825260208301602085012081835280955050505050506000915091509054906101000a900460ff1681565b60076020528060005260406000206000915090508054611b3990612e3b565b80601f0160208091040260200160405190810160405280929190818152602001828054611b6590612e3b565b8015611bb25780601f10611b8757610100808354040283529160200191611bb2565b820191906000526020600020905b815481529060010190602001808311611b9557829003601f168201915b505050505081565b6000600160008473ffffffffffffffffffffffffffffffffffffffff1673ffffffffffffffffffffffffffffffffffffffff16815260200190815260200160002060008373ffffffffffffffffffffffffffffffffffffffff1673ffffffffffffffffffffffffffffffffffffffff16815260200190815260200160002054905092915050565b611c49611d39565b73ffffffffffffffffffffffffffffffffffffffff16611c676113cf565b73ffffffffffffffffffffffffffffffffffffffff1614611cbd576040517f08c379a0000000000000000000000000000000000000000000000000000000008152600401611cb490612b31565b60405180910390fd5b600073ffffffffffffffffffffffffffffffffffffffff168173ffffffffffffffffffffffffffffffffffffffff161415611d2d576040517f08c379a0000000000000000000000000000000000000000000000000000000008152600401611d2490612a71565b60405180910390fd5b611d368161218d565b50565b600033905090565b600073ffffffffffffffffffffffffffffffffffffffff168373ffffffffffffffffffffffffffffffffffffffff161415611db1576040517f08c379a0000000000000000000000000000000000000000000000000000000008152600401611da890612bb1565b60405180910390fd5b600073ffffffffffffffffffffffffffffffffffffffff168273ffffffffffffffffffffffffffffffffffffffff161415611e21576040517f08c379a0000000000000000000000000000000000000000000000000000000008152600401611e1890612a91565b60405180910390fd5b80600160008573ffffffffffffffffffffffffffffffffffffffff1673ffffffffffffffffffffffffffffffffffffffff16815260200190815260200160002060008473ffffffffffffffffffffffffffffffffffffffff1673ffffffffffffffffffffffffffffffffffffffff168152602001908152602001600020819055508173ffffffffffffffffffffffffffffffffffffffff168373ffffffffffffffffffffffffffffffffffffffff167f8c5be1e5ebec7d5bd14f71427d1e84f3dd0314c0f7b2291e5b200ac8c7c3b92583604051611eff9190612c51565b60405180910390a3505050565b600073ffffffffffffffffffffffffffffffffffffffff168373ffffffffffffffffffffffffffffffffffffffff161415611f7c576040517f08c379a0000000000000000000000000000000000000000000000000000000008152600401611f7390612b91565b60405180910390fd5b600073ffffffffffffffffffffffffffffffffffffffff168273ffffffffffffffffffffffffffffffffffffffff161415611fec576040517f08c379a0000000000000000000000000000000000000000000000000000000008152600401611fe390612a51565b60405180910390fd5b611ff78383836123b3565b60008060008573ffffffffffffffffffffffffffffffffffffffff1673ffffffffffffffffffffffffffffffffffffffff1681526020019081526020016000205490508181101561207d576040517f08c379a000000000000000000000000000000000000000000000000000000000815260040161207490612ab1565b60405180910390fd5b8181036000808673ffffffffffffffffffffffffffffffffffffffff1673ffffffffffffffffffffffffffffffffffffffff16815260200190815260200160002081905550816000808573ffffffffffffffffffffffffffffffffffffffff1673ffffffffffffffffffffffffffffffffffffffff16815260200190815260200160002060008282546121109190612d4e565b925050819055508273ffffffffffffffffffffffffffffffffffffffff168473ffffffffffffffffffffffffffffffffffffffff167fddf252ad1be2c89b69c2b068fc378daa952ba7f163c4a11628f55a4df523b3ef846040516121749190612c51565b60405180910390a36121878484846123b8565b50505050565b6000600560009054906101000a900473ffffffffffffffffffffffffffffffffffffffff16905081600560006101000a81548173ffffffffffffffffffffffffffffffffffffffff021916908373ffffffffffffffffffffffffffffffffffffffff1602179055508173ffffffffffffffffffffffffffffffffffffffff168173ffffffffffffffffffffffffffffffffffffffff167f8be0079c531659141344cd1fd0a4f28419497f9722a3daafe3b4186f6b6457e060405160405180910390a35050565b600073ffffffffffffffffffffffffffffffffffffffff168273ffffffffffffffffffffffffffffffffffffffff1614156122c3576040517f08c379a00000000000000000000000000000000000000000000000000000000081526004016122ba90612c31565b60405180910390fd5b6122cf600083836123b3565b80600260008282546122e19190612d4e565b92505081905550806000808473ffffffffffffffffffffffffffffffffffffffff1673ffffffffffffffffffffffffffffffffffffffff16815260200190815260200160002060008282546123369190612d4e565b925050819055508173ffffffffffffffffffffffffffffffffffffffff16600073ffffffffffffffffffffffffffffffffffffffff167fddf252ad1be2c89b69c2b068fc378daa952ba7f163c4a11628f55a4df523b3ef8360405161239b9190612c51565b60405180910390a36123af600083836123b8565b5050565b505050565b505050565b60006123d06123cb84612cac565b612c87565b9050828152602081018484840111156123e857600080fd5b6123f3848285612df9565b509392505050565b60008135905061240a81613348565b92915050565b600082601f83011261242157600080fd5b81356124318482602086016123bd565b91505092915050565b6000813590506124498161335f565b92915050565b60006020828403121561246157600080fd5b600061246f848285016123fb565b91505092915050565b6000806040838503121561248b57600080fd5b6000612499858286016123fb565b92505060206124aa858286016123fb565b9150509250929050565b6000806000606084860312156124c957600080fd5b60006124d7868287016123fb565b93505060206124e8868287016123fb565b92505060406124f98682870161243a565b9150509250925092565b6000806040838503121561251657600080fd5b6000612524858286016123fb565b925050602083013567ffffffffffffffff81111561254157600080fd5b61254d85828601612410565b9150509250929050565b6000806040838503121561256a57600080fd5b6000612578858286016123fb565b92505060206125898582860161243a565b9150509250929050565b6000602082840312156125a557600080fd5b600082013567ffffffffffffffff8111156125bf57600080fd5b6125cb84828501612410565b91505092915050565b600080604083850312156125e757600080fd5b600083013567ffffffffffffffff81111561260157600080fd5b61260d85828601612410565b925050602061261e8582860161243a565b9150509250929050565b600061263483836126cf565b905092915050565b61264581612da4565b82525050565b600061265682612ced565b6126608185612d10565b93508360208202850161267285612cdd565b8060005b858110156126ae578484038952815161268f8582612628565b945061269a83612d03565b925060208a01995050600181019050612676565b50829750879550505050505092915050565b6126c981612db6565b82525050565b60006126da82612cf8565b6126e48185612d21565b93506126f4818560208601612e08565b6126fd81612f2b565b840191505092915050565b600061271382612cf8565b61271d8185612d32565b935061272d818560208601612e08565b61273681612f2b565b840191505092915050565b600061274c82612cf8565b6127568185612d43565b9350612766818560208601612e08565b80840191505092915050565b600061277f602383612d32565b915061278a82612f3c565b604082019050919050565b60006127a2602683612d32565b91506127ad82612f8b565b604082019050919050565b60006127c5602283612d32565b91506127d082612fda565b604082019050919050565b60006127e8602683612d32565b91506127f382613029565b604082019050919050565b600061280b601783612d32565b915061281682613078565b602082019050919050565b600061282e602e83612d32565b9150612839826130a1565b604082019050919050565b6000612851602883612d32565b915061285c826130f0565b604082019050919050565b6000612874602083612d32565b915061287f8261313f565b602082019050919050565b6000612897601f83612d32565b91506128a282613168565b602082019050919050565b60006128ba603983612d32565b91506128c582613191565b604082019050919050565b60006128dd602583612d32565b91506128e8826131e0565b604082019050919050565b6000612900602483612d32565b915061290b8261322f565b604082019050919050565b6000612923601283612d32565b915061292e8261327e565b602082019050919050565b6000612946601c83612d32565b9150612951826132a7565b602082019050919050565b6000612969602583612d32565b9150612974826132d0565b604082019050919050565b600061298c601f83612d32565b91506129978261331f565b602082019050919050565b6129ab81612de2565b82525050565b6129ba81612dec565b82525050565b60006129cc8284612741565b915081905092915050565b60006020820190506129ec600083018461263c565b92915050565b60006020820190508181036000830152612a0c818461264b565b905092915050565b6000602082019050612a2960008301846126c0565b92915050565b60006020820190508181036000830152612a498184612708565b905092915050565b60006020820190508181036000830152612a6a81612772565b9050919050565b60006020820190508181036000830152612a8a81612795565b9050919050565b60006020820190508181036000830152612aaa816127b8565b9050919050565b60006020820190508181036000830152612aca816127db565b9050919050565b60006020820190508181036000830152612aea816127fe565b9050919050565b60006020820190508181036000830152612b0a81612821565b9050919050565b60006020820190508181036000830152612b2a81612844565b9050919050565b60006020820190508181036000830152612b4a81612867565b9050919050565b60006020820190508181036000830152612b6a8161288a565b9050919050565b60006020820190508181036000830152612b8a816128ad565b9050919050565b60006020820190508181036000830152612baa816128d0565b9050919050565b60006020820190508181036000830152612bca816128f3565b9050919050565b60006020820190508181036000830152612bea81612916565b9050919050565b60006020820190508181036000830152612c0a81612939565b9050919050565b60006020820190508181036000830152612c2a8161295c565b9050919050565b60006020820190508181036000830152612c4a8161297f565b9050919050565b6000602082019050612c6660008301846129a2565b92915050565b6000602082019050612c8160008301846129b1565b92915050565b6000612c91612ca2565b9050612c9d8282612e6d565b919050565b6000604051905090565b600067ffffffffffffffff821115612cc757612cc6612efc565b5b612cd082612f2b565b9050602081019050919050565b6000819050602082019050919050565b600081519050919050565b600081519050919050565b6000602082019050919050565b600082825260208201905092915050565b600082825260208201905092915050565b600082825260208201905092915050565b600081905092915050565b6000612d5982612de2565b9150612d6483612de2565b9250827fffffffffffffffffffffffffffffffffffffffffffffffffffffffffffffffff03821115612d9957612d98612e9e565b5b828201905092915050565b6000612daf82612dc2565b9050919050565b60008115159050919050565b600073ffffffffffffffffffffffffffffffffffffffff82169050919050565b6000819050919050565b600060ff82169050919050565b82818337600083830152505050565b60005b83811015612e26578082015181840152602081019050612e0b565b83811115612e35576000848401525b50505050565b60006002820490506001821680612e5357607f821691505b60208210811415612e6757612e66612ecd565b5b50919050565b612e7682612f2b565b810181811067ffffffffffffffff82111715612e9557612e94612efc565b5b80604052505050565b7f4e487b7100000000000000000000000000000000000000000000000000000000600052601160045260246000fd5b7f4e487b7100000000000000000000000000000000000000000000000000000000600052602260045260246000fd5b7f4e487b7100000000000000000000000000000000000000000000000000000000600052604160045260246000fd5b6000601f19601f8301169050919050565b7f45524332303a207472616e7366657220746f20746865207a65726f206164647260008201527f6573730000000000000000000000000000000000000000000000000000000000602082015250565b7f4f776e61626c653a206e6577206f776e657220697320746865207a65726f206160008201527f6464726573730000000000000000000000000000000000000000000000000000602082015250565b7f45524332303a20617070726f766520746f20746865207a65726f20616464726560008201527f7373000000000000000000000000000000000000000000000000000000000000602082015250565b7f45524332303a207472616e7366657220616d6f756e742065786365656473206260008201527f616c616e63650000000000000000000000000000000000000000000000000000602082015250565b7f436f64696e6f6d65206e616f206175746f72697a61646f000000000000000000600082015250565b7f5175616e74696461646520646520547572696e6773206e616f20706f6465207360008201527f6572206d61696f72207175652032000000000000000000000000000000000000602082015250565b7f45524332303a207472616e7366657220616d6f756e742065786365656473206160008201527f6c6c6f77616e6365000000000000000000000000000000000000000000000000602082015250565b7f4f776e61626c653a2063616c6c6572206973206e6f7420746865206f776e6572600082015250565b7f566f6365206e616f20706f646520766f74617220656d207369206d65736d6f00600082015250565b7f4170656e6173206f206f776e6572206f7520612070726f666573736f7261207060008201527f6f64656d20657865637574617220657374612066756e63616f00000000000000602082015250565b7f45524332303a207472616e736665722066726f6d20746865207a65726f20616460008201527f6472657373000000000000000000000000000000000000000000000000000000602082015250565b7f45524332303a20617070726f76652066726f6d20746865207a65726f2061646460008201527f7265737300000000000000000000000000000000000000000000000000000000602082015250565b7f566f746163616f20646573617469766164610000000000000000000000000000600082015250565b7f566f6365206a6120766f746f75206e6573746520636f64696e6f6d6500000000600082015250565b7f45524332303a2064656372656173656420616c6c6f77616e63652062656c6f7760008201527f207a65726f000000000000000000000000000000000000000000000000000000602082015250565b7f45524332303a206d696e7420746f20746865207a65726f206164647265737300600082015250565b61335181612da4565b811461335c57600080fd5b50565b61336881612de2565b811461337357600080fd5b5056fea26469706673582212201af8bef1ce67ec4aa864b0bc6d71b879349624c58e113c8d7c9f5157e31b48a064736f6c63430008040033",
  "linkReferences": {},
  "deployedLinkReferences": {}
}